{
  "contractName": "IconRegistry",
  "abi": [
    {
      "inputs": [],
      "stateMutability": "nonpayable",
      "type": "constructor"
    },
    {
      "inputs": [],
      "name": "owner",
      "outputs": [
        {
          "internalType": "address",
          "name": "",
          "type": "address"
        }
      ],
      "stateMutability": "view",
      "type": "function",
      "constant": true
    },
    {
      "inputs": [
        {
          "internalType": "address",
          "name": "",
          "type": "address"
        }
      ],
      "name": "registry",
      "outputs": [
        {
          "internalType": "string",
          "name": "_name",
          "type": "string"
        },
        {
          "internalType": "string",
          "name": "_path",
          "type": "string"
        },
        {
          "internalType": "string",
          "name": "_type",
          "type": "string"
        },
        {
          "internalType": "bool",
          "name": "isSet",
          "type": "bool"
        }
      ],
      "stateMutability": "view",
      "type": "function",
      "constant": true
    },
    {
      "inputs": [
        {
          "internalType": "uint256",
          "name": "",
          "type": "uint256"
        }
      ],
      "name": "scAddresses",
      "outputs": [
        {
          "internalType": "address",
          "name": "",
          "type": "address"
        }
      ],
      "stateMutability": "view",
      "type": "function",
      "constant": true
    },
    {
      "inputs": [
        {
          "internalType": "address",
          "name": "_target",
          "type": "address"
        },
        {
          "internalType": "string",
          "name": "_path",
          "type": "string"
        },
        {
          "internalType": "string",
          "name": "_name",
          "type": "string"
        },
        {
          "internalType": "string",
          "name": "_type",
          "type": "string"
        }
      ],
      "name": "setRegistryValue",
      "outputs": [],
      "stateMutability": "nonpayable",
      "type": "function"
    },
    {
      "inputs": [],
      "name": "getSCAddresses",
      "outputs": [
        {
          "internalType": "address[]",
          "name": "",
          "type": "address[]"
        }
      ],
      "stateMutability": "view",
      "type": "function",
      "constant": true
    }
  ],
  "bytecode": "0x608060405234801561001057600080fd5b50336000806101000a81548173ffffffffffffffffffffffffffffffffffffffff021916908373ffffffffffffffffffffffffffffffffffffffff160217905550610c2b806100606000396000f3fe608060405234801561001057600080fd5b50600436106100575760003560e01c8063038defd71461005c578063581af90a146101fc5780635f0dd5bb1461025b5780638da5cb5b146102c9578063cf54c80514610313575b600080fd5b61009e6004803603602081101561007257600080fd5b81019080803573ffffffffffffffffffffffffffffffffffffffff16906020019092919050505061051c565b6040518080602001806020018060200185151515158152602001848103845288818151815260200191508051906020019080838360005b838110156100f05780820151818401526020810190506100d5565b50505050905090810190601f16801561011d5780820380516001836020036101000a031916815260200191505b50848103835287818151815260200191508051906020019080838360005b8381101561015657808201518184015260208101905061013b565b50505050905090810190601f1680156101835780820380516001836020036101000a031916815260200191505b50848103825286818151815260200191508051906020019080838360005b838110156101bc5780820151818401526020810190506101a1565b50505050905090810190601f1680156101e95780820380516001836020036101000a031916815260200191505b5097505050505050505060405180910390f35b610204610721565b6040518080602001828103825283818151815260200191508051906020019060200280838360005b8381101561024757808201518184015260208101905061022c565b505050509050019250505060405180910390f35b6102876004803603602081101561027157600080fd5b81019080803590602001909291905050506107af565b604051808273ffffffffffffffffffffffffffffffffffffffff1673ffffffffffffffffffffffffffffffffffffffff16815260200191505060405180910390f35b6102d16107eb565b604051808273ffffffffffffffffffffffffffffffffffffffff1673ffffffffffffffffffffffffffffffffffffffff16815260200191505060405180910390f35b61051a6004803603608081101561032957600080fd5b81019080803573ffffffffffffffffffffffffffffffffffffffff1690602001909291908035906020019064010000000081111561036657600080fd5b82018360208201111561037857600080fd5b8035906020019184600183028401116401000000008311171561039a57600080fd5b91908080601f016020809104026020016040519081016040528093929190818152602001838380828437600081840152601f19601f820116905080830192505050505050509192919290803590602001906401000000008111156103fd57600080fd5b82018360208201111561040f57600080fd5b8035906020019184600183028401116401000000008311171561043157600080fd5b91908080601f016020809104026020016040519081016040528093929190818152602001838380828437600081840152601f19601f8201169050808301925050505050505091929192908035906020019064010000000081111561049457600080fd5b8201836020820111156104a657600080fd5b803590602001918460018302840111640100000000831117156104c857600080fd5b91908080601f016020809104026020016040519081016040528093929190818152602001838380828437600081840152601f19601f820116905080830192505050505050509192919290505050610810565b005b6001602052806000526040600020600091509050806000018054600181600116156101000203166002900480601f0160208091040260200160405190810160405280929190818152602001828054600181600116156101000203166002900480156105c85780601f1061059d576101008083540402835291602001916105c8565b820191906000526020600020905b8154815290600101906020018083116105ab57829003601f168201915b505050505090806001018054600181600116156101000203166002900480601f0160208091040260200160405190810160405280929190818152602001828054600181600116156101000203166002900480156106665780601f1061063b57610100808354040283529160200191610666565b820191906000526020600020905b81548152906001019060200180831161064957829003601f168201915b505050505090806002018054600181600116156101000203166002900480601f0160208091040260200160405190810160405280929190818152602001828054600181600116156101000203166002900480156107045780601f106106d957610100808354040283529160200191610704565b820191906000526020600020905b8154815290600101906020018083116106e757829003601f168201915b5050505050908060030160009054906101000a900460ff16905084565b606060028054806020026020016040519081016040528092919081815260200182805480156107a557602002820191906000526020600020905b8160009054906101000a900473ffffffffffffffffffffffffffffffffffffffff1673ffffffffffffffffffffffffffffffffffffffff168152602001906001019080831161075b575b5050505050905090565b600281815481106107bc57fe5b906000526020600020016000915054906101000a900473ffffffffffffffffffffffffffffffffffffffff1681565b6000809054906101000a900473ffffffffffffffffffffffffffffffffffffffff1681565b60008490503373ffffffffffffffffffffffffffffffffffffffff168173ffffffffffffffffffffffffffffffffffffffff16638da5cb5b6040518163ffffffff1660e01b8152600401602060405180830381600087803b15801561087457600080fd5b505af1158015610888573d6000803e3d6000fd5b505050506040513d602081101561089e57600080fd5b810190808051906020019092919050505073ffffffffffffffffffffffffffffffffffffffff161461091b576040517f08c379a0000000000000000000000000000000000000000000000000000000008152600401808060200182810382526025815260200180610bd16025913960400191505060405180910390fd5b60001515600160008773ffffffffffffffffffffffffffffffffffffffff1673ffffffffffffffffffffffffffffffffffffffff16815260200190815260200160002060030160009054906101000a900460ff161515146109e4576040517f08c379a00000000000000000000000000000000000000000000000000000000081526004018080602001828103825260208152602001807f49636f6e20686173206265656e20616c7265616479207265676973746572656481525060200191505060405180910390fd5b604051806080016040528084815260200185815260200183815260200160011515815250600160008773ffffffffffffffffffffffffffffffffffffffff1673ffffffffffffffffffffffffffffffffffffffff1681526020019081526020016000206000820151816000019080519060200190610a63929190610b2b565b506020820151816001019080519060200190610a80929190610b2b565b506040820151816002019080519060200190610a9d929190610b2b565b5060608201518160030160006101000a81548160ff0219169083151502179055509050506002859080600181540180825580915050600190039060005260206000200160009091909190916101000a81548173ffffffffffffffffffffffffffffffffffffffff021916908373ffffffffffffffffffffffffffffffffffffffff1602179055505050505050565b828054600181600116156101000203166002900490600052602060002090601f016020900481019282601f10610b6c57805160ff1916838001178555610b9a565b82800160010185558215610b9a579182015b82811115610b99578251825591602001919060010190610b7e565b5b509050610ba79190610bab565b5090565b610bcd91905b80821115610bc9576000816000905550600101610bb1565b5090565b9056fe596f7520617265206e6f7420746865206f776e6572206f662074686520636f6e7472616374a2646970667358221220cfcb7c787a1ae986e2c79d85e32efa5fce323826b91f5ad08d79cb9501c9dd9e64736f6c63430006000033",
  "source": "pragma solidity 0.6.0;\n\ncontract IconRegistry {\n  address public owner;\n  mapping (address=>SmartContractInformation) public registry;\n  address[] public scAddresses;\n\n  struct SmartContractInformation {\n    string _name;\n    string _path;\n    string _type;\n    bool isSet;\n  }\n\n  constructor() public {\n    owner = msg.sender;\n  }\n\n  /**\n   * _target - Address of smart contract the icon is for\n   * _path   - Path to the icon\n   * _name   - Name of the smart contract\n   * _type   - Type of the smart contract (ERC20, etc.)\n   */\n  function setRegistryValue(\n    address _target,\n    string memory _path,\n    string memory _name,\n    string memory _type) public {\n      Owner c = Owner(_target);\n      // check if the sender of the transaction is the owner of the smart contract\n      require(c.owner() == msg.sender, 'You are not the owner of the contract');\n      require(registry[_target].isSet == false, 'Icon has been already registered');\n      registry[_target] = SmartContractInformation(_name, _path, _type, true);\n      scAddresses.push(_target);\n  }\n\n  /**\n   * Returns array which contains all registered smart contract addresses\n   */\n  function getSCAddresses() public view returns (address[] memory) {\n      return scAddresses;\n  }\n}\n\n/**\n * Interface for contracts which are implementing the\n * Ownership contract by OpenZeppelin\n * (https://docs.openzeppelin.com/contracts/2.x/api/ownership#Ownable-owner--)\n */\ninterface Owner {\n    function owner() external returns(address);\n}\n",
  "sourcePath": "/home/yori/projects/dicons/truffle/contracts/IconRegistry.sol",
  "compiler": {
    "name": "solc",
    "version": "0.6.0+commit.26b70077.Emscripten.clang"
  },
  "schemaVersion": "3.0.23",
  "updatedAt": "2020-08-03T17:29:07.024Z",
  "networkType": "ethereum",
  "devdoc": {
    "methods": {}
  },
  "userdoc": {
    "methods": {
      "getSCAddresses()": {
        "notice": "Returns array which contains all registered smart contract addresses"
      },
      "setRegistryValue(address,string,string,string)": {
        "notice": "_target - Address of smart contract the icon is for _path   - Path to the icon _name   - Name of the smart contract _type   - Type of the smart contract (ERC20, etc.)"
      }
    }
  }
}